{
  "contractName": "Faucet",
  "abi": [
    {
      "anonymous": false,
      "inputs": [
        {
          "indexed": true,
          "internalType": "address",
          "name": "from",
          "type": "address"
        },
        {
          "indexed": false,
          "internalType": "uint256",
          "name": "amount",
          "type": "uint256"
        }
      ],
      "name": "Deposit",
      "type": "event"
    },
    {
      "anonymous": false,
      "inputs": [
        {
          "indexed": true,
          "internalType": "address",
          "name": "to",
          "type": "address"
        },
        {
          "indexed": false,
          "internalType": "uint256",
          "name": "amount",
          "type": "uint256"
        }
      ],
      "name": "Withdrawl",
      "type": "event"
    },
    {
      "stateMutability": "payable",
      "type": "receive",
      "payable": true
    },
    {
      "inputs": [
        {
          "internalType": "uint256",
          "name": "withdraw_amount",
          "type": "uint256"
        }
      ],
      "name": "withdraw",
      "outputs": [],
      "stateMutability": "nonpayable",
      "type": "function"
    }
  ],
  "bytecode": "0x608060405234801561001057600080fd5b50610297806100206000396000f3fe6080604052600436106100225760003560e01c80632e1a7d4d1461007c57610077565b36610077573373ffffffffffffffffffffffffffffffffffffffff167fe1fffcc4923d04b559f4d29a8bfc6cda04eb5b0d3c460751c2402c5c5cc9109c346040518082815260200191505060405180910390a2005b600080fd5b34801561008857600080fd5b506100b56004803603602081101561009f57600080fd5b81019080803590602001909291905050506100b7565b005b64174876e8008110610114576040517f08c379a000000000000000000000000000000000000000000000000000000000815260040180806020018281038252602a815260200180610238602a913960400191505060405180910390fd5b8047101561016d576040517f08c379a00000000000000000000000000000000000000000000000000000000081526004018080602001828103825260328152602001806102066032913960400191505060405180910390fd5b3373ffffffffffffffffffffffffffffffffffffffff166108fc829081150290604051600060405180830381858888f193505050501580156101b3573d6000803e3d6000fd5b503373ffffffffffffffffffffffffffffffffffffffff167f65ac0d8bb8cbc0e989ebd02ddc5161d7c499f7c21792e43fcf170314fe6bcc3f826040518082815260200191505060405180910390a25056fe4661756365743a20496e73756666696369656e742062616c616e636520666f722077697468647261776c20726571756573744661756365743a204d61782077697468647261776c207265717565737420697320302e31206574686572a2646970667358221220cf5d376f2a5f5d21d8e3330a44960c49d29d114f96258d3853834d004c89b00764736f6c63430006000033",
  "source": "// SPDX-License-Identifier: MIT\r\n\r\npragma solidity ^0.6.0;\r\n\r\n\r\ncontract Faucet {\r\n    event Withdrawl(address indexed to, uint256 amount);\r\n    event Deposit(address indexed from, uint256 amount);\r\n\r\n    // give out ether to anyone who asks\r\n    function withdraw(uint256 withdraw_amount) public {\r\n        require(\r\n            withdraw_amount < 0.0000001 ether,\r\n            \"Faucet: Max withdrawl request is 0.1 ether\"\r\n        );\r\n        // check for sufficient funds\r\n        require(\r\n            address(this).balance >= withdraw_amount,\r\n            \"Faucet: Insufficient balance for withdrawl request\"\r\n        );\r\n        msg.sender.transfer(withdraw_amount);\r\n        emit Withdrawl(msg.sender, withdraw_amount);\r\n    }\r\n\r\n    receive() external payable {\r\n        emit Deposit(msg.sender, msg.value);\r\n    }\r\n}\r\n",
  "sourcePath": "C:\\BCDV1010\\Faucet\\contracts\\Faucet.sol",
  "compiler": {
    "name": "solc",
    "version": "0.6.0+commit.26b70077.Emscripten.clang"
  },
  "schemaVersion": "3.2.0",
  "updatedAt": "2020-05-30T02:20:22.594Z",
  "networkType": "ethereum",
  "devdoc": {
    "methods": {}
  },
  "userdoc": {
    "methods": {}
  }
}