{
  "contractName": "Calculator",
  "abi": [
    {
      "inputs": [
        {
          "internalType": "uint256",
          "name": "val",
          "type": "uint256"
        }
      ],
      "stateMutability": "nonpayable",
      "type": "constructor"
    },
    {
      "inputs": [],
      "name": "getVal",
      "outputs": [
        {
          "internalType": "uint256",
          "name": "",
          "type": "uint256"
        }
      ],
      "stateMutability": "view",
      "type": "function"
    },
    {
      "inputs": [
        {
          "internalType": "uint256",
          "name": "val",
          "type": "uint256"
        }
      ],
      "name": "addNumber",
      "outputs": [],
      "stateMutability": "nonpayable",
      "type": "function"
    },
    {
      "inputs": [
        {
          "internalType": "uint256",
          "name": "val",
          "type": "uint256"
        }
      ],
      "name": "subNumber",
      "outputs": [],
      "stateMutability": "nonpayable",
      "type": "function"
    }
  ],
  "bytecode": "0x608060405234801561001057600080fd5b506040516101713803806101718339818101604052602081101561003357600080fd5b810190808051906020019092919050505080600081905550506101168061005b6000396000f3fe6080604052348015600f57600080fd5b5060043610603c5760003560e01c80638b10c739146041578063e1cb0e5214606c578063fce68023146088575b600080fd5b606a60048036036020811015605557600080fd5b810190808035906020019092919050505060b3565b005b607260c5565b6040518082815260200191505060405180910390f35b60b160048036036020811015609c57600080fd5b810190808035906020019092919050505060ce565b005b80600080828254039250508190555050565b60008054905090565b8060008082825401925050819055505056fea26469706673582212204ba8b3fda62bdcfa231b4ec7093dfd1124626bb5d6de8599612ebc7c8335155f64736f6c63430006000033",
  "source": "// SPDX-License-Identifier: MIT\r\n\r\npragma solidity ^0.6.0;\r\n\r\ncontract Calculator {\r\n    uint number;\r\n\r\n        constructor(uint val) public {\r\n            number = val;\r\n        }\r\n\r\n        function getVal() public view returns(uint) {\r\n            return number;\r\n        }\r\n\r\n        function addNumber(uint val) public {\r\n            number += val;\r\n        }\r\n\r\n        function subNumber(uint val) public {\r\n            number -= val;\r\n        }\r\n}",
  "sourcePath": "C:\\BCDV1010\\Calculator\\contracts\\Calculator.sol",
  "compiler": {
    "name": "solc",
    "version": "0.6.0+commit.26b70077.Emscripten.clang"
  },
  "schemaVersion": "3.2.0",
  "updatedAt": "2020-06-02T00:05:30.842Z",
  "devdoc": {
    "methods": {}
  },
  "userdoc": {
    "methods": {}
  }
}